:020000040800F2
:10000000880600206501000819040008170400088C
:1000100000000000000000000000000000000000E0
:10002000000000000000000000000000D1050008F2
:1000300000000000000000006D040008A506000894
:100040009501000895010008950100089501000838
:100050009501000895010008950100089501000828
:100060009501000895010008950100089501000818
:100070009501000895010008950100089501000808
:1000800075070008950100080000000095010008B0
:1000900095010008950100089501000895010008E8
:1000A00095010008950100089501000895010008D8
:1000B0009501000800000000950100080000000004
:1000C00000F002F800F03EF80CA030C80838241800
:1000D0002D18A246671EAB4654465D46AC4201D180
:1000E00000F030F87E460F3E0FCCB6460126334274
:1000F00000D0FB1AA246AB46334318473408000031
:1001000054080000103A02D378C878C1FAD85207D0
:1001100001D330C830C101D504680C6070470000BD
:100120000023002400250026103A01D378C1FBD813
:10013000520700D330C100D50B6070471FB51FBDFB
:1001400010B510BD00F0F8F81146FFF7F7FF00F00A
:10015000D5FB00F010F903B4FFF7F2FF03BC00F089
:1001600017F900000F4880F308880F480168090E4E
:100170000E4A914205D10E480E4901600E480F49C2
:1001800001600F4880470F480047FEE7FEE7FEE7A3
:10019000FEE7FEE7FEE700000B480C490C4A0D4B5A
:1001A0007047000088060020040000001F000000C7
:1001B0001810024001000000000001400000000093
:1001C00015070008C10000088800002088060020EC
:1001D0008802002088020020002203098B422CD3D1
:1001E000030A8B4211D300239C464EE003460B4387
:1001F0003CD4002243088B4231D303098B421CD3E9
:10020000030A8B4201D394463FE0C3098B4201D3DA
:10021000CB01C01A524183098B4201D38B01C01A12
:10022000524143098B4201D34B01C01A5241030989
:100230008B4201D30B01C01A5241C3088B4201D338
:10024000CB00C01A524183088B4201D38B00C01AE5
:10025000524143088B4201D34B00C01A5241411A0C
:1002600000D201465241104670475DE0CA0F00D0EF
:100270004942031000D34042534000229C460309E8
:100280008B422DD3030A8B4212D3FC22890112BA6E
:10029000030A8B420CD3890192118B4208D3890146
:1002A00092118B4204D389013AD0921100E089095E
:1002B000C3098B4201D3CB01C01A524183098B423F
:1002C00001D38B01C01A524143098B4201D34B0128
:1002D000C01A524103098B4201D30B01C01A52418B
:1002E000C3088B4201D3CB00C01A524183088B4212
:1002F00001D38B00C01A5241D9D243088B4201D39B
:100300004B00C01A5241411A00D201466346524185
:100310005B10104601D34042002B00D54942704784
:1003200063465B1000D3404201B50020C046C04682
:1003300002BD704770477047754600F025F8AE461D
:10034000050069465346C008C000854618B020B570
:10035000FFF722FF60BC00274908B6460026C0C54B
:10036000C0C5C0C5C0C5C0C5C0C5C0C5C0C5403D6D
:1003700049008D46704710B50446C046C046204629
:10038000FFF7E9FE10BD000000487047280000207C
:1003900001491820ABBEFEE7260002007047F0B509
:1003A0000022012423460D6893401D409D422AD11E
:1003B0000D79012D01D0022D12D187685500032639
:1003C000AE40B74387604E79AE4085682E43866065
:1003D00085889D43858085888B7993401D438580E2
:1003E000066855000323AB409E4306600E790768FC
:1003F000AE403E430660C6689E43C660CB79AB40C4
:10040000C5682B43C360521C102ACBD3F0BD0185B5
:10041000704781617047FEE77047000030B5837810
:1004200001210278002B15D094080E4BA400E4188B
:1004300023689207D50EFF22AA4093434278920781
:10044000120EAA401A4322600078C006C00E8140F6
:10045000054804E0D006C00E8140034880300160AA
:1004600030BD000000E400E000E100E07047000063
:10047000044A0029516901D0014300E081435161E0
:100480007047000000100240044A0029D16901D0E1
:10049000014300E08143D161704700000010024039
:1004A000124801680122114301604168104A11405D
:1004B000416001680F4A1140016001680122920405
:1004C0009143016041683F22120491434160C16A37
:1004D00009090901C162016B074A11400163416BBF
:1004E00049084900416300218160704700100240C3
:1004F0000CB8FF08FFFFF6FEACFEF0FF034600203D
:100500000A495A090CD0012A0CD0022A0CD0496B96
:10051000DA06D20E012393400B4200D0012070472F
:100520000968F5E7096AF3E7496AF1E70010024054
:10053000024840680C21084070470000001002404B
:10054000034A5168F023994301435160704700000A
:100550000010024005490028086802D0012210431B
:1005600001E04008400008607047000000100240B1
:10057000034A516807231B029943014351607047A6
:10058000001002400122054912060028086801D027
:10059000104300E0904308607047000000100240E4
:1005A00010B5054A53687B24E403A34353605368A2
:1005B00008430343536010BD00100240034A5168D2
:1005C0008908890001435160704700000010024013
:1005D000704700001CB5002122480191009102687B
:1005E00001231B041A4302605B0005221203046806
:1005F0001C400094019C641C0194009C002C02D1BE
:10060000019C9442F3D10268920328D50121009104
:10061000154A11211160416841604168416041689B
:100620007F22D20391434160416811221204114399
:1006300041600168012212061143016001688901CD
:10064000FCD5416889088900416041680222114354
:10065000416041680907890F0229FAD11CBD009148
:100660001CBD000000100240002002400A4910B5E5
:10067000401E884201D9012010BD08494861084840
:100680000722C3691B021B0A4C042343C3610020D9
:1006900088610A6110BD0000FFFFFF0000E000E07C
:1006A00004ED00E010B500F01FF910BD10B5FFF724
:1006B000F7FE0120FFF74EFF0120FFF71FFF012883
:1006C000FAD10521C9040020FFF76AFF0120FFF7D6
:1006D00059FF1920FFF712FF0128FAD10220FFF776
:1006E0006DFF0020FFF72CFF0020FFF741FFFFF711
:1006F0001FFF0828FBD106487D21C9000068FFF7CD
:100700006BFDFFF7B3FF002800D0FEE710BD00002F
:100710000000002010B51448016801221143016057
:100720004168124A114041600168114A114001605C
:100730000168012292049143016041683F22120442
:1007400091434160C16A09090901C162016BFF223D
:10075000543291430163416B4908490041630021D0
:100760008160FFF737FF10BD001002400CB8FF0892
:10077000FFFFF6FE70B50F4D0121284600F066F828
:10078000002816D00C4C09202178C006002902D080
:10079000012905D009E08021FFF73BFE012003E09D
:1007A0008021FFF734FE002020700121284600F050
:1007B00005F870BD0004004024000020C9430182F8
:1007C00070470029018802D00122114301E0490845
:1007D00049000180704700007FB501210220FFF72A
:1007E00053FE10216846017300244473012585736C
:1007F00003A8FFF713FE11480F490068FFF7ECFC50
:100800000F49401E08800F48FF2101908131684642
:100810000180048144800C4C85726946204600F0BA
:1008200029F801221146204600F01CF8012120463B
:10083000FFF7C7FF7FBD0000808D5B000000002038
:1008400014000020D4300000000400400246138A47
:10085000002092890B400A40002B02D0002A00D0D1
:1008600001207047002A828901D00A4300E08A43B0
:100870008281704710B50288144B984206D001243B
:10088000A407A04202D0124CA04203D17024A2437C
:100890004C8822430F4CA04203D00F4C22400C89BD
:1008A000224302804A68C2620A880285984208D0C0
:1008B0000A4A904205D00A4A904202D0094A904220
:1008C00001D1897A01860121818210BD002C01406D
:1008D0000004004000100040FFFC00000040014008
:1008E000004401400048014003484168002902D00B
:1008F0004168491E4160704714000020FFF7D6FE92
:10090000FFF76AFF01214804FFF7B2FD0748802185
:10091000016001210171002181714171C1710146A4
:100920000920C006FFF73BFDFEE700001C00002089
:100930005009000800000020280000000401000801
:100940007809000828000020600600002001000847
:10095000006CDC0200000000000000000102030443
:100960000607080900000000000000000000000069
:0809700000000000000000007F
:04000005080000C12E
:00000001FF
