:020000040800F2
:100000006806002065010008D7020008D302000836
:1000100000000000000000000000000000000000E0
:10002000000000000000000000000000FD020008C9
:100030000000000000000000D9020008D9030008F9
:100040009501000895010008950100089501000838
:100050009501000895010008950100089501000828
:100060009501000895010008950100089501000818
:100070009501000895010008950100089501000808
:100080009501000895010008000000009501000896
:1000900095010008950100089501000895010008E8
:1000A00095010008950100089501000895010008D8
:1000B0009501000800000000950100080000000004
:1000C00000F002F800F03EF80CA030C80838241800
:1000D0002D18A246671EAB4654465D46AC4201D180
:1000E00000F030F87E460F3E0FCCB6460126334274
:1000F00000D0FB1AA246AB4633431847F803000072
:1001000018040000103A02D378C878C1FAD8520710
:1001100001D330C830C101D504680C6070470000BD
:100120000023002400250026103A01D378C1FBD813
:10013000520700D330C100D50B6070471FB51FBDFB
:1001400010B510BD00F04BF81146FFF7F7FF00F0B7
:1001500083F900F063F803B4FFF7F2FF03BC00F08B
:1001600069F800000F4880F308880F480168090EFD
:100170000E4A914205D10E480E4901600E480F49C2
:1001800001600F4880470F480047FEE7FEE7FEE7A3
:10019000FEE7FEE7FEE700000B480C490C4A0D4B5A
:1001A0007047000068060020040000001F000000E7
:1001B0001810024001000000000001400000000093
:1001C000DD030008C1000008680000206806002068
:1001D000680200206802002070477047704775462B
:1001E00000F024F8AE46050069465346C008C0003A
:1001F000854618B020B5FFF7CFFF60BC002749083F
:10020000B6460026C0C5C0C5C0C5C0C5C0C5C0C5AE
:10021000C0C5C0C5403D49008D46704710B5044675
:10022000C046C0462046FFF796FF10BD0048704705
:100230000800002001491820ABBEFEE7260002009E
:100240007047F0B50A4600210023002400BF3DE0BE
:1002500001258D402B4615681D402C469C4234D10B
:100260001579012D02D01579022D16D185684F0020
:100270000326BE40B543856055794E00B54086687B
:1002800035438560858801268E40B5438580858805
:1002900096798E40B6B23543858005684F000326B7
:1002A000BE40B543056015794E00B540066835433C
:1002B0000560C5684F000326BE40B543C560D579CB
:1002C0004E00B540C6683543C560491C1029BFD3F0
:1002D000F0BD00BFFEE7704770470000002905D061
:1002E000054A52690243044B5A6104E0024A5269CA
:1002F0008243014B5A617047001002407047000072
:100300000CB50020019000903148006801210904DB
:1003100008432F49086000BF2D48006801214904A7
:10032000084000900198401C01900098002804D1DA
:100330000521090301988842EED125480068012172
:1003400049040840002802D00120009001E000206C
:1003500000900098012839D111201E4908601C48DE
:1003600040681B4948600846406848600846406845
:100370007F21C90388431649486008464068112117
:10038000090408431249486008460068012109062B
:1003900008430F49086000BF0D4800680121490665
:1003A00008400028F8D00A484068800880000849C2
:1003B000486008464068022108430549486000BF7C
:1003C000034840680C2108400828F9D10CBD000002
:1003D00000100240002002407047000010B51B488A
:1003E0000068012108431949086008464068184917
:1003F00008401649486008460068164908401349F5
:100400000860084600680121890488430F49086094
:10041000084640683F21090488430C494860084663
:10042000C06A00090001C8620846006BFF21543110
:100430008843064908630846406B4008400048630B
:1004400000208860FFF75CFF10BD00000010024034
:100450000CB8FFF8FFFFF6FE0121C804FFF73EFFCE
:100460000320800221490860012008710020887162
:10047000032048710020C8711D48FFF7E2FE33E0F9
:10048000032080021A4988611949203108811849DE
:100490008861174920310881154988611449203144
:1004A0000881134988611249203108811049886107
:1004B0000F49203108810E4988610D49203108819A
:1004C0000B4988610A492031088109498861084936
:1004D0002031088106498861054920310881044995
:1004E0008861034920310881CAE70000000000202C
:1004F0000008004814050008000000200800000063
:10050000040100081C050008080000206006000027
:0C051000200100080000000000000000B6
:04000005080000C12E
:00000001FF
